:1000000009C016C016C014C013C012C03DC010C035
:100010000FC00EC011241FBECFE9CDBF20E0A0E667
:10002000B0E001C01D92A336B207E1F772D0A4C0C0
:10003000E7CF1F920F920FB60F9211242F938F9339
:100040009F93B19919C02FEF86E791E0215080402E
:100050009040E1F700C0000085B7877E806185BFD2
:1000600080B7836080BF8E7F80BF85B7806285BF89
:10007000889585B78F7D85BF9F918F912F910F9028
:100080000FBE0F901F9018951F920F920FB60F92F0
:1000900011242F938F939F93809161009091620020
:1000A000019690936200809361008091610090912D
:1000B0006200803A9F4028F498B384E0892788BB87
:1000C00020C08091610090916200813A9F4048F089
:1000D000809161009091620080349F4110F4C29839
:1000E00010C0809161009091620081349F4148F07E
:1000F0001092620010926100809160008F5F809387
:1001000060009F918F912F910F900FBE0F901F90C5
:1001100018951FBC13BE8FB582608FBD83B78260F8
:1001200083BF8AE486BFBA9A89B7846089BF78940E
:1001300085B78E7F85BF85B78D7F85BFB998C19AFA
:100140008BB780628BBFA99A7894809160008330CE
:10015000E0F385B7877E806185BF80B7836080BF0D
:100160008E7F80BF85B7806285BF889585B78F7D7C
:0C01700085BF80E090E00895F894FFCF78
:00000001FF
