:1000000009C016C016C014C013C012C011C010C061
:100010000FC00EC011241FBECFE9CDBF20E0A0E667
:10002000B0E001C01D92A236B207E1F739D08AC014
:10003000E7CF1F920F920FB60F9211242F933F9389
:100040004F935F936F937F938F939F93AF93BF93E0
:10005000EF93FF93B29906C085B78F7D85BFE0E02F
:10006000F0E00995B1990BC085B7877E806185BFA7
:1000700085B7806285BF889585B78F7D85BFFF91E5
:10008000EF91BF91AF919F918F917F916F915F9110
:100090004F913F912F910F900FBE0F901F90189589
:1000A0001FBC13BE8FB582608FBD83B7826083BFD4
:1000B0008AE486BFB89A85B78E7F85BF85B78D7F66
:1000C00085BFB998BA9888B3866088BB8BB78062C1
:1000D0008BBF85B3866085BB789481E08093610097
:1000E000809160008330F0F48FB580648FBD2FEF76
:1000F00087EB9BE0215080409040E1F700C000007A
:100100008FB58F7B8FBD2FEF87EB9BE02150804019
:100110009040E1F700C00000809160008F5F809305
:100120006000DECF1092610085B7877E806185BF59
:1001300085B7806285BF889585B78F7D85BF80E054
:0801400090E00895F894FFCF50
:00000001FF
