:1000000009C016C016C014C013C012C011C010C061
:100010000FC00EC011241FBECFE9CDBF20E0A0E667
:10002000B0E001C01D92A236B207E1F72DD07EC02C
:10003000E7CF1F920F920FB60F9211242F938F9339
:100040009F93B19919C02FEF86E791E0215080402E
:100050009040E1F700C0000085B7877E806185BFD2
:1000600080B7836080BF8E7F80BF85B7806285BF89
:10007000889585B78F7D85BF9F918F912F910F9028
:100080000FBE0F901F9018951FBC13BE8FB58260D6
:100090008FBD83B7826083BF8AE486BFB89A85B775
:1000A0008E7F85BF85B78D7F85BFB998C19A8BB785
:1000B00080628BBFA99A789481E0809361008091DF
:1000C00060008436F0F48FB580648FBD2FEF85EA31
:1000D0009EE0215080409040E1F700C000008FB5C5
:1000E0008F7B8FBD2FEF8DE69EEB2150804090409F
:1000F000E1F700C00000809160008F5F8093600096
:10010000DECF1092610085B7877E806185BF80B7A2
:10011000836080BF8E7F80BF85B7806285BF8895F2
:1001200085B78F7D85BF80E090E00895F894FFCF7C
:00000001FF
