:1000000009C016C016C014C013C012C03DC010C035
:100010000FC00EC011241FBECFE9CDBF20E0A0E667
:10002000B0E001C01D92A436B207E1F761D096C0DE
:10003000E7CF1F920F920FB60F9211242F938F9339
:100040009F93B19919C02FEF86E791E0215080402E
:100050009040E1F700C0000085B7877E806185BFD2
:1000600080B7836080BF8E7F80BF85B7806285BF89
:10007000889585B78F7D85BF9F918F912F910F9028
:100080000FBE0F901F9018951F920F920FB60F92F0
:1000900011242F938F939F9380916200909163001E
:1000A000019690936300809362008139914020F41F
:1000B00098B384E0892788BB8091620090916300A7
:1000C000815991408730924010F4C29809C0109233
:1000D000630010926200809161008F5F80936100E5
:1000E0009F918F912F910F900FBE0F901F90189599
:1000F0001FBC13BE8FB582608FBD83B7826083BF84
:100100008AE486BFBA9A89B7846089BF789485B734
:100110008E7F85BF85B78D7F85BFB998C19A8BB714
:1001200080628BBFA99A789481E08093600080916F
:1001300061008330E0F385B7877E806185BF80B73B
:10014000836080BF8E7F80BF85B7806285BF8895C2
:1001500085B78F7D85BF80E090E00895F894FFCF4C
:00000001FF
