:1000000009C016C015C014C013C012C011C010C062
:100010000FC00EC011241FBECFE9CDBF20E0A0E667
:10002000B0E001C01D92A136B207E1F702D034C0A2
:10003000E7CF1FBC13BE8FB582608FBD8FB58064C4
:100040008FBD83B7826083BF8FEF86BFB89A8091E0
:1000500060008436F0F48FB580648FBD2FEF8BE4A1
:100060009DE1215080409040E1F700C000008FB535
:100070008F7B8FBD2FEF8BE49DE12150804090401E
:10008000E1F700C00000809160008F5F8093600006
:0C009000DECF80E090E00895F894FFCFF0
:00000001FF
